{
  "_format": "hh-sol-artifact-1",
  "contractName": "HomeTransaction",
  "sourceName": "contracts/HomeTransaction.sol",
  "abi": [
    {
      "constant": true,
      "inputs": [],
      "name": "OTPdeposit",
      "outputs": [
        {
          "internalType": "uint256",
          "name": "",
          "type": "uint256"
        }
      ],
      "payable": false,
      "stateMutability": "view",
      "type": "function"
    },
    {
      "constant": true,
      "inputs": [],
      "name": "zip",
      "outputs": [
        {
          "internalType": "string",
          "name": "",
          "type": "string"
        }
      ],
      "payable": false,
      "stateMutability": "view",
      "type": "function"
    },
    {
      "constant": true,
      "inputs": [],
      "name": "seller",
      "outputs": [
        {
          "internalType": "address payable",
          "name": "",
          "type": "address"
        }
      ],
      "payable": false,
      "stateMutability": "view",
      "type": "function"
    },
    {
      "constant": true,
      "inputs": [],
      "name": "acco",
      "outputs": [
        {
          "internalType": "uint256",
          "name": "",
          "type": "uint256"
        }
      ],
      "payable": false,
      "stateMutability": "view",
      "type": "function"
    },
    {
      "constant": true,
      "inputs": [],
      "name": "lastOperationTime",
      "outputs": [
        {
          "internalType": "uint256",
          "name": "",
          "type": "uint256"
        }
      ],
      "payable": false,
      "stateMutability": "view",
      "type": "function"
    },
    {
      "constant": false,
      "inputs": [],
      "name": "sellerSignContract",
      "outputs": [],
      "payable": true,
      "stateMutability": "payable",
      "type": "function"
    },
    {
      "constant": false,
      "inputs": [],
      "name": "buyerShowsInterest",
      "outputs": [],
      "payable": true,
      "stateMutability": "payable",
      "type": "function"
    },
    {
      "constant": false,
      "inputs": [],
      "name": "buyerFinalizeTransaction",
      "outputs": [],
      "payable": true,
      "stateMutability": "payable",
      "type": "function"
    },
    {
      "constant": true,
      "inputs": [],
      "name": "OTPDeadline",
      "outputs": [
        {
          "internalType": "uint256",
          "name": "",
          "type": "uint256"
        }
      ],
      "payable": false,
      "stateMutability": "view",
      "type": "function"
    },
    {
      "constant": false,
      "inputs": [],
      "name": "buyerSignContractAndPayDeposit",
      "outputs": [],
      "payable": false,
      "stateMutability": "nonpayable",
      "type": "function"
    },
    {
      "constant": false,
      "inputs": [],
      "name": "SellerWithdrawPostExpiry",
      "outputs": [],
      "payable": true,
      "stateMutability": "payable",
      "type": "function"
    },
    {
      "constant": false,
      "inputs": [],
      "name": "anyWithdrawPostFinalDeadline",
      "outputs": [],
      "payable": true,
      "stateMutability": "payable",
      "type": "function"
    },
    {
      "constant": true,
      "inputs": [],
      "name": "buyer",
      "outputs": [
        {
          "internalType": "address payable",
          "name": "",
          "type": "address"
        }
      ],
      "payable": false,
      "stateMutability": "view",
      "type": "function"
    },
    {
      "constant": true,
      "inputs": [],
      "name": "blockentry",
      "outputs": [
        {
          "internalType": "string",
          "name": "",
          "type": "string"
        }
      ],
      "payable": false,
      "stateMutability": "view",
      "type": "function"
    },
    {
      "constant": true,
      "inputs": [],
      "name": "contractState",
      "outputs": [
        {
          "internalType": "enum HomeTransaction.ContractState",
          "name": "",
          "type": "uint8"
        }
      ],
      "payable": false,
      "stateMutability": "view",
      "type": "function"
    },
    {
      "constant": true,
      "inputs": [],
      "name": "Agent",
      "outputs": [
        {
          "internalType": "address payable",
          "name": "",
          "type": "address"
        }
      ],
      "payable": false,
      "stateMutability": "view",
      "type": "function"
    },
    {
      "constant": true,
      "inputs": [],
      "name": "price",
      "outputs": [
        {
          "internalType": "uint256",
          "name": "",
          "type": "uint256"
        }
      ],
      "payable": false,
      "stateMutability": "view",
      "type": "function"
    },
    {
      "constant": true,
      "inputs": [],
      "name": "finalizeDeadline",
      "outputs": [
        {
          "internalType": "uint256",
          "name": "",
          "type": "uint256"
        }
      ],
      "payable": false,
      "stateMutability": "view",
      "type": "function"
    },
    {
      "constant": false,
      "inputs": [],
      "name": "anyWithdrawFromTransaction",
      "outputs": [],
      "payable": true,
      "stateMutability": "payable",
      "type": "function"
    },
    {
      "constant": true,
      "inputs": [],
      "name": "AgentFee",
      "outputs": [
        {
          "internalType": "uint256",
          "name": "",
          "type": "uint256"
        }
      ],
      "payable": false,
      "stateMutability": "view",
      "type": "function"
    },
    {
      "constant": false,
      "inputs": [
        {
          "internalType": "bool",
          "name": "accepted",
          "type": "bool"
        }
      ],
      "name": "AgentReviewedClosingConditions",
      "outputs": [],
      "payable": false,
      "stateMutability": "nonpayable",
      "type": "function"
    },
    {
      "constant": true,
      "inputs": [],
      "name": "proptype",
      "outputs": [
        {
          "internalType": "uint256",
          "name": "",
          "type": "uint256"
        }
      ],
      "payable": false,
      "stateMutability": "view",
      "type": "function"
    },
    {
      "constant": true,
      "inputs": [],
      "name": "deposit",
      "outputs": [
        {
          "internalType": "uint256",
          "name": "",
          "type": "uint256"
        }
      ],
      "payable": false,
      "stateMutability": "view",
      "type": "function"
    },
    {
      "constant": true,
      "inputs": [],
      "name": "token1",
      "outputs": [
        {
          "internalType": "contract IERC20",
          "name": "",
          "type": "address"
        }
      ],
      "payable": false,
      "stateMutability": "view",
      "type": "function"
    },
    {
      "constant": false,
      "inputs": [],
      "name": "buyerPaysOTPAmount",
      "outputs": [],
      "payable": true,
      "stateMutability": "payable",
      "type": "function"
    },
    {
      "constant": true,
      "inputs": [],
      "name": "homeAddress",
      "outputs": [
        {
          "internalType": "string",
          "name": "",
          "type": "string"
        }
      ],
      "payable": false,
      "stateMutability": "view",
      "type": "function"
    },
    {
      "constant": true,
      "inputs": [],
      "name": "InstAddress",
      "outputs": [
        {
          "internalType": "address",
          "name": "",
          "type": "address"
        }
      ],
      "payable": false,
      "stateMutability": "view",
      "type": "function"
    },
    {
      "constant": true,
      "inputs": [],
      "name": "proparea",
      "outputs": [
        {
          "internalType": "uint256",
          "name": "",
          "type": "uint256"
        }
      ],
      "payable": false,
      "stateMutability": "view",
      "type": "function"
    },
    {
      "inputs": [
        {
          "internalType": "string",
          "name": "_address",
          "type": "string"
        },
        {
          "internalType": "string",
          "name": "_zip",
          "type": "string"
        },
        {
          "internalType": "uint256",
          "name": "_AgentFee",
          "type": "uint256"
        },
        {
          "internalType": "uint256",
          "name": "_price",
          "type": "uint256"
        },
        {
          "internalType": "uint256",
          "name": "_proptype",
          "type": "uint256"
        },
        {
          "internalType": "uint256",
          "name": "_acco",
          "type": "uint256"
        },
        {
          "internalType": "uint256",
          "name": "_proparea",
          "type": "uint256"
        },
        {
          "internalType": "string",
          "name": "_blockentry",
          "type": "string"
        },
        {
          "internalType": "address payable",
          "name": "_Agent",
          "type": "address"
        },
        {
          "internalType": "address payable",
          "name": "_seller",
          "type": "address"
        },
        {
          "internalType": "address payable",
          "name": "_buyer",
          "type": "address"
        }
      ],
      "payable": false,
      "stateMutability": "nonpayable",
      "type": "constructor"
    }
  ],
  "bytecode": "0x60806040526013805460ff191690553480156200001b57600080fd5b50604051620019863803806200198683398181016040526101608110156200004257600080fd5b81019080805160405193929190846401000000008211156200006357600080fd5b9083019060208201858111156200007957600080fd5b82516401000000008111828201881017156200009457600080fd5b82525081516020918201929091019080838360005b83811015620000c3578181015183820152602001620000a9565b50505050905090810190601f168015620000f15780820380516001836020036101000a031916815260200191505b50604052602001805160405193929190846401000000008211156200011557600080fd5b9083019060208201858111156200012b57600080fd5b82516401000000008111828201881017156200014657600080fd5b82525081516020918201929091019080838360005b83811015620001755781810151838201526020016200015b565b50505050905090810190601f168015620001a35780820380516001836020036101000a031916815260200191505b5060408181526020830151908301516060840151608085015160a086015160c09096018051949893979296919591949193929184640100000000821115620001ea57600080fd5b9083019060208201858111156200020057600080fd5b82516401000000008111828201881017156200021b57600080fd5b82525081516020918201929091019080838360005b838110156200024a57818101518382015260200162000230565b50505050905090810190601f168015620002785780820380516001836020036101000a031916815260200191505b50604090815260208201519082015160609092015190935090915088881015620002ee576040517f08c379a0000000000000000000000000000000000000000000000000000000008152600401808060200182810382526026815260200180620019606026913960400191505060405180910390fd5b60008054731484a6020a0f08400f6f56715016d2c80e26cdc16001600160a01b031991821617909155600180549091166001600160a01b038516179055600a8790556006805460ff19169055600c869055600d85905583516200035990600b906020870190620003e4565b50600280546001600160a01b038085166001600160a01b03199283161790925560038054928416929091169190911790558a516200039f9060059060208e0190620003e4565b50600480546001600160a01b031916301790558951620003c79060079060208d0190620003e4565b505050600995909555505050600892909255506200048992505050565b828054600181600116156101000203166002900490600052602060002090601f016020900481019282601f106200042757805160ff191683800117855562000457565b8280016001018555821562000457579182015b82811115620004575782518255916020019190600101906200043a565b506200046592915062000469565b5090565b6200048691905b8082111562000465576000815560010162000470565b90565b6114c780620004996000396000f3fe6080604052600436106101b55760003560e01c806385209ee0116100ec578063ccd3c7751161008a578063d62b853011610064578063d62b853014610444578063f629ad301461044c578063fb4e386a14610461578063fe389db614610476576101b5565b8063ccd3c77514610405578063d0e30db01461041a578063d21220a71461042f576101b5565b8063a0cb23cd116100c6578063a0cb23cd146103a7578063ba0892d9146103bc578063bd383473146103c4578063c7297f7b146103d9576101b5565b806385209ee0146103445780639068ed171461037d578063a035b1fe14610392576101b5565b80632323f8f5116101595780636751618011610133578063675161801461030a5780636a1bec88146103125780637150d8ae1461031a57806375becd1a1461032f576101b5565b80632323f8f5146102d85780632c93182a146102e05780634ed523e9146102f5576101b5565b806315ea4bb41161019557806315ea4bb41461029c57806316d43a97146102b157806318be633f146102c6578063202dfc70146102d0576101b5565b806263fcf0146101ba578062919055146101e157806308551a531461026b575b600080fd5b3480156101c657600080fd5b506101cf61048b565b60408051918252519081900360200190f35b3480156101ed57600080fd5b506101f6610491565b6040805160208082528351818301528351919283929083019185019080838360005b83811015610230578181015183820152602001610218565b50505050905090810190601f16801561025d5780820380516001836020036101000a031916815260200191505b509250505060405180910390f35b34801561027757600080fd5b5061028061051f565b604080516001600160a01b039092168252519081900360200190f35b3480156102a857600080fd5b506101cf61052e565b3480156102bd57600080fd5b506101cf610534565b6102ce61053a565b005b6102ce610622565b6102ce610691565b3480156102ec57600080fd5b506101cf6109d7565b34801561030157600080fd5b506102ce6109dd565b6102ce610c14565b6102ce610d3b565b34801561032657600080fd5b50610280610d82565b34801561033b57600080fd5b506101f6610d91565b34801561035057600080fd5b50610359610dec565b6040518082600781111561036957fe5b60ff16815260200191505060405180910390f35b34801561038957600080fd5b50610280610df5565b34801561039e57600080fd5b506101cf610e04565b3480156103b357600080fd5b506101cf610e0a565b6102ce610e10565b3480156103d057600080fd5b506101cf610e67565b3480156103e557600080fd5b506102ce600480360360208110156103fc57600080fd5b50351515610e6d565b34801561041157600080fd5b506101cf611078565b34801561042657600080fd5b506101cf61107e565b34801561043b57600080fd5b50610280611084565b6102ce611093565b34801561045857600080fd5b506101f66112cc565b34801561046d57600080fd5b50610280611327565b34801561048257600080fd5b506101cf611336565b600f5481565b6007805460408051602060026001851615610100026000190190941693909304601f810184900484028201840190925281815292918301828280156105175780601f106104ec57610100808354040283529160200191610517565b820191906000526020600020905b8154815290600101906020018083116104fa57829003601f168201915b505050505081565b6002546001600160a01b031681565b600c5481565b60125481565b6002546001600160a01b03163214610599576040805162461bcd60e51b815260206004820152601d60248201527f4f6e6c792073656c6c65722063616e207369676e20636f6e7472616374000000604482015290519081900360640190fd5b600160065460ff1660078111156105ac57fe5b146105f5576040805162461bcd60e51b815260206004820152601460248201527357726f6e6720636f6e747261637420737461746560601b604482015290519081900360640190fd5b600680546002919060ff19166001835b0217905550600380546001600160a01b0319163217905542601255565b600060065460ff16600781111561063557fe5b1461067e576040805162461bcd60e51b815260206004820152601460248201527357726f6e6720636f6e747261637420737461746560601b604482015290519081900360640190fd5b600680546001919060ff19168280610605565b6003546001600160a01b0316321480156106ad57504260105410155b6106e85760405162461bcd60e51b81526004018080602001828103825260238152602001806114706023913960400191505060405180910390fd5b600560065460ff1660078111156106fb57fe5b14610744576040805162461bcd60e51b815260206004820152601460248201527357726f6e6720636f6e747261637420737461746560601b604482015290519081900360640190fd5b600954606490605a02600054604080516370a0823160e01b8152326004820152905193909204926001600160a01b03909116916370a08231916024808301926020929190829003018186803b15801561079c57600080fd5b505afa1580156107b0573d6000803e3d6000fd5b505050506040513d60208110156107c657600080fd5b5051101561081b576040805162461bcd60e51b815260206004820152601860248201527f506c6561736520746f70207570207468652057616c6c65740000000000000000604482015290519081900360640190fd5b60008054600954604080516323b872dd60e01b81523260048201523060248201526064605a909302839004604482015290516001600160a01b03909316936323b872dd93828401936020939192918390030190829087803b15801561087f57600080fd5b505af1158015610893573d6000803e3d6000fd5b505050506040513d60208110156108a957600080fd5b50506006805460ff191681179055600080546002546008546009546040805163a9059cbb60e01b81526001600160a01b03948516600482015292909103602483015251919092169263a9059cbb92604480820193602093909283900390910190829087803b15801561091a57600080fd5b505af115801561092e573d6000803e3d6000fd5b505050506040513d602081101561094457600080fd5b5050600080546001546008546040805163a9059cbb60e01b81526001600160a01b039384166004820152602481019290925251919092169263a9059cbb92604480820193602093909283900390910190829087803b1580156109a557600080fd5b505af11580156109b9573d6000803e3d6000fd5b505050506040513d60208110156109cf57600080fd5b505042601255565b60115481565b6003546001600160a01b03163214610a3c576040805162461bcd60e51b815260206004820152601c60248201527f4f6e6c792062757965722063616e207369676e20636f6e747261637400000000604482015290519081900360640190fd5b600260065460ff166007811115610a4f57fe5b14610a98576040805162461bcd60e51b815260206004820152601460248201527357726f6e6720636f6e747261637420737461746560601b604482015290519081900360640190fd5b600054604080516370a0823160e01b815232600482015290516001600160a01b03909216916370a0823191602480820192602092909190829003018186803b158015610ae357600080fd5b505afa158015610af7573d6000803e3d6000fd5b505050506040513d6020811015610b0d57600080fd5b5051600954606490041115610b535760405162461bcd60e51b81526004018080602001828103825260358152602001806114136035913960400191505060405180910390fd5b60008054600954604080516323b872dd60e01b8152326004820152306024820152606492839004604482015290516001600160a01b03909316936323b872dd93828401936020939192918390030190829087803b158015610bb357600080fd5b505af1158015610bc7573d6000803e3d6000fd5b505050506040513d6020811015610bdd57600080fd5b50506006805460ff1916600317905560095460649004600e556000600f556249d40042908101601055621275008101601155601255565b6002546001600160a01b031632148015610c2f575042601154105b610c6a5760405162461bcd60e51b81526004018080602001828103825260338152602001806113e06033913960400191505060405180910390fd5b60035b60065460ff166007811115610c7e57fe5b14610cc7576040805162461bcd60e51b815260206004820152601460248201527357726f6e6720636f6e747261637420737461746560601b604482015290519081900360640190fd5b6006805460ff1916905560008054600254600854600e54600f546040805163a9059cbb60e01b81526001600160a01b0395861660048201529190920192909203602483015251919092169263a9059cbb92604480820193602093909283900390910190829087803b15801561091a57600080fd5b4260105410610d7b5760405162461bcd60e51b815260040180806020018281038252603681526020018061133d6036913960400191505060405180910390fd5b6005610c6d565b6003546001600160a01b031681565b600b805460408051602060026001851615610100026000190190941693909304601f810184900484028201840190925281815292918301828280156105175780601f106104ec57610100808354040283529160200191610517565b60065460ff1681565b6001546001600160a01b031681565b60095481565b60105481565b6003546001600160a01b031632148015610e2c57504260115410155b610c6a5760405162461bcd60e51b81526004018080602001828103825260338152602001806113736033913960400191505060405180910390fd5b60085481565b6001546001600160a01b03163214610eb65760405162461bcd60e51b81526004018080602001828103825260288152602001806114486028913960400191505060405180910390fd5b600460065460ff166007811115610ec957fe5b14610f12576040805162461bcd60e51b815260206004820152601460248201527357726f6e6720636f6e747261637420737461746560601b604482015290519081900360640190fd5b8015610f39576013805460ff19908116600117909155600680549091166005179055611071565b6013805460ff1990811690915560068054909116905560008054600354600854600e54600f546040805163a9059cbb60e01b81526001600160a01b0395861660048201529190920192909203602483015251919092169263a9059cbb92604480820193602093909283900390910190829087803b158015610fb957600080fd5b505af1158015610fcd573d6000803e3d6000fd5b505050506040513d6020811015610fe357600080fd5b5050600080546001546008546040805163a9059cbb60e01b81526001600160a01b039384166004820152602481019290925251919092169263a9059cbb92604480820193602093909283900390910190829087803b15801561104457600080fd5b505af1158015611058573d6000803e3d6000fd5b505050506040513d602081101561106e57600080fd5b50505b5042601255565b600a5481565b600e5481565b6000546001600160a01b031681565b6003546001600160a01b0316321480156110af57504260115410155b611100576040805162461bcd60e51b815260206004820152601f60248201527f4f6e6c792062757965722063616e20706179204f545020636f6e747261637400604482015290519081900360640190fd5b600360065460ff16600781111561111357fe5b1461115c576040805162461bcd60e51b815260206004820152601460248201527357726f6e6720636f6e747261637420737461746560601b604482015290519081900360640190fd5b6009805460649102600054604080516370a0823160e01b8152326004820152905193909204926001600160a01b03909116916370a08231916024808301926020929190829003018186803b1580156111b357600080fd5b505afa1580156111c7573d6000803e3d6000fd5b505050506040513d60208110156111dd57600080fd5b5051101561121c5760405162461bcd60e51b815260040180806020018281038252603a8152602001806113a6603a913960400191505060405180910390fd5b6000805460098054604080516323b872dd60e01b81523260048201523060248201526064929093028290046044840152516001600160a01b03909316936323b872dd938383019360209391929083900390910190829087803b15801561128157600080fd5b505af1158015611295573d6000803e3d6000fd5b505050506040513d60208110156112ab57600080fd5b50506006805460ff19166004179055600980546064910204600f5542601255565b6005805460408051602060026001851615610100026000190190941693909304601f810184900484028201840190925281815292918301828280156105175780601f106104ec57610100808354040283529160200191610517565b6004546001600160a01b031681565b600d548156fe4f6e6c7920706f737420446561646c696e65207769746864726177206166746572207472616e73616374696f6e20646561646c696e654f6e6c792062757965722063616e207769746864726177206265666f7265207472616e73616374696f6e20646561646c696e654275796572206e6565647320746f206465706f736974206265747765656e2031302520616e64203130302520746f2065786563757465204f54504f6e6c792073656c6c65722063616e207769746864726177206166746572207472616e73616374696f6e20646561646c696e6557616c6c65742042616c616e6365206973206c6573736572207468616e207265717569726564206465706f73697420616d6f756e744f6e6c79204167656e742063616e2072657669657720636c6f73696e6720636f6e646974696f6e734f6e6c792062757965722063616e2066696e616c697a65207472616e73616374696f6ea265627a7a7231582072bbcd4ad6a0df19e5b0c47c0cc16afdb762465bad464c056ef48cfef499771264736f6c634300050b00325072696365206e6565647320746f206265206d6f7265207468616e204167656e742066656521",
  "linkReferences": {},
  "deployedLinkReferences": {}
}