{
  "_format": "hh-sol-artifact-1",
  "contractName": "Factory",
  "sourceName": "contracts/Factory.sol",
  "abi": [
    {
      "constant": false,
      "inputs": [
        {
          "internalType": "uint256",
          "name": "index",
          "type": "uint256"
        }
      ],
      "name": "sellerSignContract",
      "outputs": [],
      "payable": true,
      "stateMutability": "payable",
      "type": "function"
    },
    {
      "constant": false,
      "inputs": [
        {
          "internalType": "uint256",
          "name": "index",
          "type": "uint256"
        }
      ],
      "name": "buyerShowsInterest",
      "outputs": [],
      "payable": true,
      "stateMutability": "payable",
      "type": "function"
    },
    {
      "constant": true,
      "inputs": [
        {
          "internalType": "address",
          "name": "indexadd",
          "type": "address"
        }
      ],
      "name": "getPropFromLawyer",
      "outputs": [
        {
          "internalType": "uint256[]",
          "name": "",
          "type": "uint256[]"
        }
      ],
      "payable": false,
      "stateMutability": "view",
      "type": "function"
    },
    {
      "constant": true,
      "inputs": [
        {
          "internalType": "uint256",
          "name": "index",
          "type": "uint256"
        }
      ],
      "name": "getInstancePrice",
      "outputs": [
        {
          "internalType": "uint256",
          "name": "",
          "type": "uint256"
        }
      ],
      "payable": false,
      "stateMutability": "view",
      "type": "function"
    },
    {
      "constant": true,
      "inputs": [
        {
          "internalType": "uint256",
          "name": "index",
          "type": "uint256"
        }
      ],
      "name": "getInstanceProptype",
      "outputs": [
        {
          "internalType": "uint256",
          "name": "",
          "type": "uint256"
        }
      ],
      "payable": false,
      "stateMutability": "view",
      "type": "function"
    },
    {
      "constant": true,
      "inputs": [
        {
          "internalType": "uint256",
          "name": "index",
          "type": "uint256"
        }
      ],
      "name": "getContractBalance",
      "outputs": [
        {
          "internalType": "uint256",
          "name": "",
          "type": "uint256"
        }
      ],
      "payable": false,
      "stateMutability": "view",
      "type": "function"
    },
    {
      "constant": true,
      "inputs": [
        {
          "internalType": "uint256",
          "name": "index",
          "type": "uint256"
        }
      ],
      "name": "getwalletbalance",
      "outputs": [
        {
          "internalType": "uint256",
          "name": "",
          "type": "uint256"
        }
      ],
      "payable": false,
      "stateMutability": "view",
      "type": "function"
    },
    {
      "constant": true,
      "inputs": [
        {
          "internalType": "uint256",
          "name": "state",
          "type": "uint256"
        }
      ],
      "name": "getPropFromInvState",
      "outputs": [
        {
          "internalType": "uint256[]",
          "name": "",
          "type": "uint256[]"
        }
      ],
      "payable": false,
      "stateMutability": "view",
      "type": "function"
    },
    {
      "constant": true,
      "inputs": [
        {
          "internalType": "address",
          "name": "indexadd",
          "type": "address"
        }
      ],
      "name": "getPropFromBuyer",
      "outputs": [
        {
          "internalType": "uint256[]",
          "name": "",
          "type": "uint256[]"
        }
      ],
      "payable": false,
      "stateMutability": "view",
      "type": "function"
    },
    {
      "constant": true,
      "inputs": [
        {
          "internalType": "uint256",
          "name": "state",
          "type": "uint256"
        }
      ],
      "name": "getPropFromState",
      "outputs": [
        {
          "internalType": "uint256[]",
          "name": "",
          "type": "uint256[]"
        }
      ],
      "payable": false,
      "stateMutability": "view",
      "type": "function"
    },
    {
      "constant": true,
      "inputs": [
        {
          "internalType": "uint256",
          "name": "index",
          "type": "uint256"
        }
      ],
      "name": "getInstanceBuyerAddress",
      "outputs": [
        {
          "internalType": "address",
          "name": "",
          "type": "address"
        }
      ],
      "payable": false,
      "stateMutability": "view",
      "type": "function"
    },
    {
      "constant": true,
      "inputs": [
        {
          "internalType": "uint256",
          "name": "index",
          "type": "uint256"
        }
      ],
      "name": "getInstanceSellerAddress",
      "outputs": [
        {
          "internalType": "address",
          "name": "",
          "type": "address"
        }
      ],
      "payable": false,
      "stateMutability": "view",
      "type": "function"
    },
    {
      "constant": true,
      "inputs": [
        {
          "internalType": "uint256",
          "name": "index",
          "type": "uint256"
        }
      ],
      "name": "getInstanceState",
      "outputs": [
        {
          "internalType": "uint256",
          "name": "",
          "type": "uint256"
        }
      ],
      "payable": false,
      "stateMutability": "view",
      "type": "function"
    },
    {
      "constant": true,
      "inputs": [
        {
          "internalType": "address",
          "name": "indexadd",
          "type": "address"
        }
      ],
      "name": "getPropFromSeller",
      "outputs": [
        {
          "internalType": "uint256[]",
          "name": "",
          "type": "uint256[]"
        }
      ],
      "payable": false,
      "stateMutability": "view",
      "type": "function"
    },
    {
      "constant": true,
      "inputs": [
        {
          "internalType": "uint256",
          "name": "index",
          "type": "uint256"
        }
      ],
      "name": "getInstanceZIP",
      "outputs": [
        {
          "internalType": "string",
          "name": "",
          "type": "string"
        }
      ],
      "payable": false,
      "stateMutability": "view",
      "type": "function"
    },
    {
      "constant": false,
      "inputs": [
        {
          "internalType": "uint256",
          "name": "index",
          "type": "uint256"
        }
      ],
      "name": "buyerFinalizeTransaction",
      "outputs": [],
      "payable": true,
      "stateMutability": "payable",
      "type": "function"
    },
    {
      "constant": false,
      "inputs": [
        {
          "internalType": "uint256",
          "name": "index",
          "type": "uint256"
        }
      ],
      "name": "anyWithdrawPostFinalDeadline",
      "outputs": [],
      "payable": true,
      "stateMutability": "payable",
      "type": "function"
    },
    {
      "constant": false,
      "inputs": [
        {
          "internalType": "uint256",
          "name": "index",
          "type": "uint256"
        }
      ],
      "name": "SellerWithdrawPostExpiry",
      "outputs": [],
      "payable": true,
      "stateMutability": "payable",
      "type": "function"
    },
    {
      "constant": true,
      "inputs": [
        {
          "internalType": "uint256",
          "name": "index",
          "type": "uint256"
        }
      ],
      "name": "getLastOpsTime",
      "outputs": [
        {
          "internalType": "uint256",
          "name": "",
          "type": "uint256"
        }
      ],
      "payable": false,
      "stateMutability": "view",
      "type": "function"
    },
    {
      "constant": true,
      "inputs": [
        {
          "internalType": "uint256",
          "name": "index",
          "type": "uint256"
        }
      ],
      "name": "getInstanceAgentFee",
      "outputs": [
        {
          "internalType": "uint256",
          "name": "",
          "type": "uint256"
        }
      ],
      "payable": false,
      "stateMutability": "view",
      "type": "function"
    },
    {
      "constant": true,
      "inputs": [
        {
          "internalType": "uint256",
          "name": "proptype",
          "type": "uint256"
        }
      ],
      "name": "getPropFromPropType",
      "outputs": [
        {
          "internalType": "uint256[]",
          "name": "",
          "type": "uint256[]"
        }
      ],
      "payable": false,
      "stateMutability": "view",
      "type": "function"
    },
    {
      "constant": true,
      "inputs": [
        {
          "internalType": "uint256",
          "name": "index",
          "type": "uint256"
        }
      ],
      "name": "getInstanceBlockentry",
      "outputs": [
        {
          "internalType": "string",
          "name": "",
          "type": "string"
        }
      ],
      "payable": false,
      "stateMutability": "view",
      "type": "function"
    },
    {
      "constant": false,
      "inputs": [
        {
          "internalType": "uint256",
          "name": "index",
          "type": "uint256"
        }
      ],
      "name": "buyerSignContractAndPayDeposit",
      "outputs": [],
      "payable": true,
      "stateMutability": "payable",
      "type": "function"
    },
    {
      "constant": true,
      "inputs": [
        {
          "internalType": "uint256",
          "name": "index",
          "type": "uint256"
        }
      ],
      "name": "getInstanceAcco",
      "outputs": [
        {
          "internalType": "uint256",
          "name": "",
          "type": "uint256"
        }
      ],
      "payable": false,
      "stateMutability": "view",
      "type": "function"
    },
    {
      "constant": false,
      "inputs": [
        {
          "internalType": "string",
          "name": "_address",
          "type": "string"
        },
        {
          "internalType": "string",
          "name": "_zip",
          "type": "string"
        },
        {
          "internalType": "uint256",
          "name": "_realtorFee",
          "type": "uint256"
        },
        {
          "internalType": "uint256",
          "name": "_price",
          "type": "uint256"
        },
        {
          "internalType": "uint256",
          "name": "_proptype",
          "type": "uint256"
        },
        {
          "internalType": "uint256",
          "name": "_acco",
          "type": "uint256"
        },
        {
          "internalType": "uint256",
          "name": "_proparea",
          "type": "uint256"
        },
        {
          "internalType": "string",
          "name": "_blockentry",
          "type": "string"
        },
        {
          "internalType": "address payable",
          "name": "_Agent",
          "type": "address"
        }
      ],
      "name": "create",
      "outputs": [
        {
          "internalType": "contract HomeTransaction",
          "name": "homeTransaction",
          "type": "address"
        }
      ],
      "payable": false,
      "stateMutability": "nonpayable",
      "type": "function"
    },
    {
      "constant": true,
      "inputs": [],
      "name": "getInstanceCount",
      "outputs": [
        {
          "internalType": "uint256",
          "name": "count",
          "type": "uint256"
        }
      ],
      "payable": false,
      "stateMutability": "view",
      "type": "function"
    },
    {
      "constant": true,
      "inputs": [
        {
          "internalType": "uint256",
          "name": "index",
          "type": "uint256"
        }
      ],
      "name": "getContractAddress",
      "outputs": [
        {
          "internalType": "address",
          "name": "",
          "type": "address"
        }
      ],
      "payable": false,
      "stateMutability": "view",
      "type": "function"
    },
    {
      "constant": true,
      "inputs": [
        {
          "internalType": "uint256",
          "name": "index",
          "type": "uint256"
        }
      ],
      "name": "getContractAllowance",
      "outputs": [
        {
          "internalType": "uint256",
          "name": "",
          "type": "uint256"
        }
      ],
      "payable": false,
      "stateMutability": "view",
      "type": "function"
    },
    {
      "constant": false,
      "inputs": [
        {
          "internalType": "uint256",
          "name": "index",
          "type": "uint256"
        }
      ],
      "name": "anyWithdrawFromTransaction",
      "outputs": [],
      "payable": true,
      "stateMutability": "payable",
      "type": "function"
    },
    {
      "constant": true,
      "inputs": [
        {
          "internalType": "uint256",
          "name": "index",
          "type": "uint256"
        }
      ],
      "name": "getInstanceAgentAddress",
      "outputs": [
        {
          "internalType": "address",
          "name": "",
          "type": "address"
        }
      ],
      "payable": false,
      "stateMutability": "view",
      "type": "function"
    },
    {
      "constant": false,
      "inputs": [
        {
          "internalType": "uint256",
          "name": "index",
          "type": "uint256"
        }
      ],
      "name": "buyerPaysOTPAmount",
      "outputs": [],
      "payable": true,
      "stateMutability": "payable",
      "type": "function"
    },
    {
      "constant": true,
      "inputs": [],
      "name": "getInstances",
      "outputs": [
        {
          "internalType": "contract HomeTransaction[]",
          "name": "instances",
          "type": "address[]"
        }
      ],
      "payable": false,
      "stateMutability": "view",
      "type": "function"
    },
    {
      "constant": true,
      "inputs": [
        {
          "internalType": "uint256",
          "name": "index",
          "type": "uint256"
        }
      ],
      "name": "getInstancePropArea",
      "outputs": [
        {
          "internalType": "uint256",
          "name": "",
          "type": "uint256"
        }
      ],
      "payable": false,
      "stateMutability": "view",
      "type": "function"
    },
    {
      "constant": true,
      "inputs": [
        {
          "internalType": "uint256",
          "name": "index",
          "type": "uint256"
        }
      ],
      "name": "getInstanceAddress",
      "outputs": [
        {
          "internalType": "string",
          "name": "",
          "type": "string"
        }
      ],
      "payable": false,
      "stateMutability": "view",
      "type": "function"
    },
    {
      "constant": true,
      "inputs": [
        {
          "internalType": "uint256",
          "name": "index",
          "type": "uint256"
        }
      ],
      "name": "getInstance",
      "outputs": [
        {
          "internalType": "contract HomeTransaction",
          "name": "instance",
          "type": "address"
        }
      ],
      "payable": false,
      "stateMutability": "view",
      "type": "function"
    },
    {
      "constant": false,
      "inputs": [
        {
          "internalType": "uint256",
          "name": "index",
          "type": "uint256"
        },
        {
          "internalType": "bool",
          "name": "accept",
          "type": "bool"
        }
      ],
      "name": "AgentReviewedClosingConditions",
      "outputs": [],
      "payable": true,
      "stateMutability": "payable",
      "type": "function"
    },
    {
      "inputs": [
        {
          "internalType": "string",
          "name": "_greeting",
          "type": "string"
        }
      ],
      "payable": false,
      "stateMutability": "nonpayable",
      "type": "constructor"
    },
    {
      "anonymous": false,
      "inputs": [
        {
          "indexed": true,
          "internalType": "address",
          "name": "_from",
          "type": "address"
        },
        {
          "indexed": false,
          "internalType": "uint256",
          "name": "_index",
          "type": "uint256"
        },
        {
          "indexed": false,
          "internalType": "uint256",
          "name": "_value",
          "type": "uint256"
        }
      ],
      "name": "ShowIterest",
      "type": "event"
    }
  ],
  "bytecode": "0x60806040523480156200001157600080fd5b50604051620040c3380380620040c3833981810160405260208110156200003757600080fd5b81019080805160405193929190846401000000008211156200005857600080fd5b9083019060208201858111156200006e57600080fd5b82516401000000008111828201881017156200008957600080fd5b82525081516020918201929091019080838360005b83811015620000b85781810151838201526020016200009e565b50505050905090810190601f168015620000e65780820380516001836020036101000a031916815260200191505b5060405250505050613fc580620000fe6000396000f3fe608060405260043610620002415760003560e01c8063595a45fe1162000133578063c6389f6b11620000af578063d35fdd791162000079578063d35fdd791462000a28578063dbff9c8a1462000a40578063e9bdc18a1462000a6e578063ebd348de1462000a9c578063f828fa951462000aca5762000241565b8063c6389f6b146200098c578063c6f56def14620009ba578063c903b45c14620009da578063c9e3bfff1462000a085762000241565b80639938a3c711620000fd5780639938a3c71462000709578063a5f7597f1462000729578063a81be58d1462000757578063ae34325c1462000946578063aefa7d98146200095e5762000241565b8063595a45fe14620006515780635d329278146200067f5780637e6bc31d14620006ad57806384d596da14620006db5762000241565b806318299b9111620001c35780633df25f24116200018d5780633df25f2414620005145780633ed54a79146200054b5780634e9dcb5814620005f157806352d21087146200061157806354d5688714620006315762000241565b806318299b9114620004405780631a952acf146200046e5780631c22cc4a14620004b857806334be341914620004e65762000241565b8063052df04c1162000211578063052df04c146200035157806305d63070146200037f578063086ccea314620003ad5780630954225714620003db5780630a180b8d14620004095762000241565b8062ff4b3d146200024657806301d2d18614620002685780630347784f1462000288578063035211c61462000311575b600080fd5b62000266600480360360208110156200025e57600080fd5b503562000af2565b005b62000266600480360360208110156200028057600080fd5b503562000bdc565b3480156200029557600080fd5b50620002bf60048036036020811015620002ae57600080fd5b50356001600160a01b031662000cc6565b60408051602080825283518183015283519192839290830191858101910280838360005b83811015620002fd578181015183820152602001620002e3565b505050509050019250505060405180910390f35b3480156200031e57600080fd5b506200033f600480360360208110156200033757600080fd5b503562000d5b565b60408051918252519081900360200190f35b3480156200035e57600080fd5b506200033f600480360360208110156200037757600080fd5b503562000e33565b3480156200038c57600080fd5b506200033f60048036036020811015620003a557600080fd5b503562000ed6565b348015620003ba57600080fd5b506200033f60048036036020811015620003d357600080fd5b503562000fc2565b348015620003e857600080fd5b50620002bf600480360360208110156200040157600080fd5b503562001097565b3480156200041657600080fd5b50620002bf600480360360208110156200042f57600080fd5b50356001600160a01b031662001112565b3480156200044d57600080fd5b50620002bf600480360360208110156200046657600080fd5b5035620011a0565b3480156200047b57600080fd5b506200049c600480360360208110156200049457600080fd5b50356200121c565b604080516001600160a01b039092168252519081900360200190f35b348015620004c557600080fd5b506200049c60048036036020811015620004de57600080fd5b5035620012bf565b348015620004f357600080fd5b506200033f600480360360208110156200050c57600080fd5b503562001362565b3480156200052157600080fd5b50620002bf600480360360208110156200053a57600080fd5b50356001600160a01b031662001446565b3480156200055857600080fd5b5062000579600480360360208110156200057157600080fd5b5035620014d4565b6040805160208082528351818301528351919283929083019185019080838360005b83811015620005b55781810151838201526020016200059b565b50505050905090810190601f168015620005e35780820380516001836020036101000a031916815260200191505b509250505060405180910390f35b62000266600480360360208110156200060957600080fd5b503562001670565b62000266600480360360208110156200062957600080fd5b50356200175a565b62000266600480360360208110156200064957600080fd5b503562001844565b3480156200065e57600080fd5b506200033f600480360360208110156200067757600080fd5b5035620018e4565b3480156200068c57600080fd5b506200033f60048036036020811015620006a557600080fd5b503562001987565b348015620006ba57600080fd5b50620002bf60048036036020811015620006d357600080fd5b503562001a2a565b348015620006e857600080fd5b5062000579600480360360208110156200070157600080fd5b503562001aa6565b62000266600480360360208110156200072157600080fd5b503562001b49565b3480156200073657600080fd5b506200033f600480360360208110156200074f57600080fd5b503562001c33565b3480156200076457600080fd5b506200049c60048036036101208110156200077e57600080fd5b810190602081018135600160201b8111156200079957600080fd5b820183602082011115620007ac57600080fd5b803590602001918460018302840111600160201b83111715620007ce57600080fd5b91908080601f0160208091040260200160405190810160405280939291908181526020018383808284376000920191909152509295949360208101935035915050600160201b8111156200082157600080fd5b8201836020820111156200083457600080fd5b803590602001918460018302840111600160201b831117156200085657600080fd5b91908080601f016020809104026020016040519081016040528093929190818152602001838380828437600092019190915250929584359560208601359560408101359550606081013594506080810135935060c081019060a00135600160201b811115620008c457600080fd5b820183602082011115620008d757600080fd5b803590602001918460018302840111600160201b83111715620008f957600080fd5b91908080601f016020809104026020016040519081016040528093929190818152602001838380828437600092019190915250929550505090356001600160a01b0316915062001cd69050565b3480156200095357600080fd5b506200033f62001f17565b3480156200096b57600080fd5b506200049c600480360360208110156200098457600080fd5b503562001f1d565b3480156200099957600080fd5b506200033f60048036036020811015620009b257600080fd5b503562001f7b565b6200026660048036036020811015620009d257600080fd5b503562002081565b348015620009e757600080fd5b506200049c6004803603602081101562000a0057600080fd5b503562002122565b620002666004803603602081101562000a2057600080fd5b5035620021c5565b34801562000a3557600080fd5b50620002bf620022af565b34801562000a4d57600080fd5b506200033f6004803603602081101562000a6657600080fd5b503562002313565b34801562000a7b57600080fd5b50620005796004803603602081101562000a9457600080fd5b5035620023b6565b34801562000aa957600080fd5b506200049c6004803603602081101562000ac257600080fd5b503562002459565b620002666004803603604081101562000ae257600080fd5b50803590602001351515620024c9565b600054811062000b38576040805162461bcd60e51b8152602060048201526012602482015260008051602062003f51833981519152604482015290519081900360640190fd5b600080828154811062000b4757fe5b6000918252602082200154604080516318be633f60e01b815290516001600160a01b03909216935083926318be633f9260048084019382900301818387803b15801562000b9357600080fd5b505af115801562000ba8573d6000803e3d6000fd5b50506040805185815260026020820152815133945060008051602062003f7183398151915293509081900390910190a25050565b600054811062000c22576040805162461bcd60e51b8152602060048201526012602482015260008051602062003f51833981519152604482015290519081900360640190fd5b600080828154811062000c3157fe5b600091825260208220015460408051630202dfc760e41b815290516001600160a01b039092169350839263202dfc709260048084019382900301818387803b15801562000c7d57600080fd5b505af115801562000c92573d6000803e3d6000fd5b50506040805185815260016020820152815133945060008051602062003f7183398151915293509081900390910190a25050565b60005460408051828152602080840282010190915260609190829082801562000cf9578160200160208202803883390190505b50905060005b8281101562000d5357846001600160a01b031662000d1d8262002122565b6001600160a01b03161462000d4a578060010182828151811062000d3d57fe5b6020026020010181815250505b60010162000cff565b509392505050565b60008054821062000da2576040805162461bcd60e51b8152602060048201526012602482015260008051602062003f51833981519152604482015290519081900360640190fd5b600080838154811062000db157fe5b600091825260209182902001546040805163501ad8ff60e11b815290516001600160a01b039092169350839263a035b1fe92600480840193829003018186803b15801562000dfe57600080fd5b505afa15801562000e13573d6000803e3d6000fd5b505050506040513d602081101562000e2a57600080fd5b50519392505050565b60008054821062000e7a576040805162461bcd60e51b8152602060048201526012602482015260008051602062003f51833981519152604482015290519081900360640190fd5b600080838154811062000e8957fe5b600091825260209182902001546040805163ccd3c77560e01b815290516001600160a01b039092169350839263ccd3c77592600480840193829003018186803b15801562000dfe57600080fd5b6000806000838154811062000ee757fe5b600091825260209182902001546040805163d21220a760e01b815290516001600160a01b039092169350839263d21220a792600480840193829003018186803b15801562000f3457600080fd5b505afa15801562000f49573d6000803e3d6000fd5b505050506040513d602081101562000f6057600080fd5b50516001600160a01b03166370a0823162000f7b8562001f1d565b6040518263ffffffff1660e01b815260040180826001600160a01b03166001600160a01b0316815260200191505060206040518083038186803b15801562000dfe57600080fd5b6000806000838154811062000fd357fe5b600091825260209182902001546040805163d21220a760e01b815290516001600160a01b039092169350839263d21220a792600480840193829003018186803b1580156200102057600080fd5b505afa15801562001035573d6000803e3d6000fd5b505050506040513d60208110156200104c57600080fd5b5051604080516370a0823160e01b815232600482015290516001600160a01b03909216916370a0823191602480820192602092909190829003018186803b15801562000dfe57600080fd5b600054604080518281526020808402820101909152606091908290828015620010ca578160200160208202803883390190505b50905060005b8281101562000d535784620010e58262001362565b14620011095780600101828281518110620010fc57fe5b6020026020010181815250505b600101620010d0565b60005460408051828152602080840282010190915260609190829082801562001145578160200160208202803883390190505b50905060005b8281101562000d5357846001600160a01b031662001169826200121c565b6001600160a01b031614156200119757806001018282815181106200118a57fe5b6020026020010181815250505b6001016200114b565b600054604080518281526020808402820101909152606091908290828015620011d3578160200160208202803883390190505b50905060005b8281101562000d535784620011ee8262001362565b14156200121357806001018282815181106200120657fe5b6020026020010181815250505b600101620011d9565b60008054821062001263576040805162461bcd60e51b8152602060048201526012602482015260008051602062003f51833981519152604482015290519081900360640190fd5b60008083815481106200127257fe5b60009182526020918290200154604080516338a86c5760e11b815290516001600160a01b0390921693508392637150d8ae92600480840193829003018186803b15801562000dfe57600080fd5b60008054821062001306576040805162461bcd60e51b8152602060048201526012602482015260008051602062003f51833981519152604482015290519081900360640190fd5b60008083815481106200131557fe5b60009182526020918290200154604080516308551a5360e01b815290516001600160a01b03909216935083926308551a5392600480840193829003018186803b15801562000dfe57600080fd5b600080548210620013a9576040805162461bcd60e51b8152602060048201526012602482015260008051602062003f51833981519152604482015290519081900360640190fd5b6000808381548110620013b857fe5b600091825260209182902001546040805163042904f760e51b815290516001600160a01b03909216935083926385209ee092600480840193829003018186803b1580156200140557600080fd5b505afa1580156200141a573d6000803e3d6000fd5b505050506040513d60208110156200143157600080fd5b505160078111156200143f57fe5b9392505050565b60005460408051828152602080840282010190915260609190829082801562001479578160200160208202803883390190505b50905060005b8281101562000d5357846001600160a01b03166200149d82620012bf565b6001600160a01b03161415620014cb5780600101828281518110620014be57fe5b6020026020010181815250505b6001016200147f565b60005460609082106200151d576040805162461bcd60e51b8152602060048201526012602482015260008051602062003f51833981519152604482015290519081900360640190fd5b60008083815481106200152c57fe5b6000918252602082200154604080516291905560e01b815290516001600160a01b03909216935083926291905592600480840193829003018186803b1580156200157557600080fd5b505afa1580156200158a573d6000803e3d6000fd5b505050506040513d6000823e601f3d908101601f191682016040526020811015620015b457600080fd5b8101908080516040519392919084600160201b821115620015d457600080fd5b908301906020820185811115620015ea57600080fd5b8251600160201b8111828201881017156200160457600080fd5b82525081516020918201929091019080838360005b838110156200163357818101518382015260200162001619565b50505050905090810190601f168015620016615780820380516001836020036101000a031916815260200191505b50604052505050915050919050565b6000548110620016b6576040805162461bcd60e51b8152602060048201526012602482015260008051602062003f51833981519152604482015290519081900360640190fd5b6000808281548110620016c557fe5b600091825260208220015460408051632323f8f560e01b815290516001600160a01b0390921693508392632323f8f59260048084019382900301818387803b1580156200171157600080fd5b505af115801562001726573d6000803e3d6000fd5b50506040805185815260066020820152815133945060008051602062003f7183398151915293509081900390910190a25050565b6000548110620017a0576040805162461bcd60e51b8152602060048201526012602482015260008051602062003f51833981519152604482015290519081900360640190fd5b6000808281548110620017af57fe5b600091825260208220015460408051630d437d9160e31b815290516001600160a01b0390921693508392636a1bec889260048084019382900301818387803b158015620017fb57600080fd5b505af115801562001810573d6000803e3d6000fd5b50506040805185815260006020820152815133945060008051602062003f7183398151915293509081900390910190a25050565b60005481106200188a576040805162461bcd60e51b8152602060048201526012602482015260008051602062003f51833981519152604482015290519081900360640190fd5b60008082815481106200189957fe5b60009182526020822001546040805162cea2c360e71b815290516001600160a01b039092169350839263675161809260048084019382900301818387803b158015620017fb57600080fd5b6000805482106200192b576040805162461bcd60e51b8152602060048201526012602482015260008051602062003f51833981519152604482015290519081900360640190fd5b60008083815481106200193a57fe5b60009182526020918290200154604080516316d43a9760e01b815290516001600160a01b03909216935083926316d43a9792600480840193829003018186803b15801562000dfe57600080fd5b600080548210620019ce576040805162461bcd60e51b8152602060048201526012602482015260008051602062003f51833981519152604482015290519081900360640190fd5b6000808381548110620019dd57fe5b600091825260209182902001546040805163bd38347360e01b815290516001600160a01b039092169350839263bd38347392600480840193829003018186803b15801562000dfe57600080fd5b60005460408051828152602080840282010190915260609190829082801562001a5d578160200160208202803883390190505b50905060005b8281101562000d53578462001a788262001362565b141562001a9d578060010182828151811062001a9057fe5b6020026020010181815250505b60010162001a63565b600054606090821062001aef576040805162461bcd60e51b8152602060048201526012602482015260008051602062003f51833981519152604482015290519081900360640190fd5b600080838154811062001afe57fe5b600091825260208220015460408051633adf668d60e11b815290516001600160a01b03909216935083926375becd1a92600480840193829003018186803b1580156200157557600080fd5b600054811062001b8f576040805162461bcd60e51b8152602060048201526012602482015260008051602062003f51833981519152604482015290519081900360640190fd5b600080828154811062001b9e57fe5b600091825260208220015460408051634ed523e960e01b815290516001600160a01b0390921693508392634ed523e99260048084019382900301818387803b15801562001bea57600080fd5b505af115801562001bff573d6000803e3d6000fd5b50506040805185815260036020820152815133945060008051602062003f7183398151915293509081900390910190a25050565b60008054821062001c7a576040805162461bcd60e51b8152602060048201526012602482015260008051602062003f51833981519152604482015290519081900360640190fd5b600080838154811062001c8957fe5b600091825260209182902001546040805163057a92ed60e21b815290516001600160a01b03909216935083926315ea4bb492600480840193829003018186803b15801562000dfe57600080fd5b6000898989898989898989333360405162001cf190620025bc565b8080602001806020018c81526020018b81526020018a815260200189815260200188815260200180602001876001600160a01b03166001600160a01b03168152602001866001600160a01b03166001600160a01b03168152602001856001600160a01b03166001600160a01b0316815260200184810384528f818151815260200191508051906020019080838360005b8381101562001d9b57818101518382015260200162001d81565b50505050905090810190601f16801562001dc95780820380516001836020036101000a031916815260200191505b5084810383528e818151815260200191508051906020019080838360005b8381101562001e0157818101518382015260200162001de7565b50505050905090810190601f16801562001e2f5780820380516001836020036101000a031916815260200191505b5084810382528851815288516020918201918a019080838360005b8381101562001e6457818101518382015260200162001e4a565b50505050905090810190601f16801562001e925780820380516001836020036101000a031916815260200191505b509e505050505050505050505050505050604051809103906000f08015801562001ec0573d6000803e3d6000fd5b50600080546001810182559080527f290decd9548b62a8d60345a988386fc84ba6bc95484008f6362f93160ef3e5630180546001600160a01b0319166001600160a01b0383161790559a9950505050505050505050565b60005490565b6000806000838154811062001f2e57fe5b6000918252602091829020015460408051637da71c3560e11b815290516001600160a01b039092169350839263fb4e386a92600480840193829003018186803b15801562000dfe57600080fd5b6000806000838154811062001f8c57fe5b600091825260209182902001546040805163d21220a760e01b815290516001600160a01b039092169350839263d21220a792600480840193829003018186803b15801562001fd957600080fd5b505afa15801562001fee573d6000803e3d6000fd5b505050506040513d60208110156200200557600080fd5b50516001600160a01b031663dd62ed3e32620020218662001f1d565b6040518363ffffffff1660e01b815260040180836001600160a01b03166001600160a01b03168152602001826001600160a01b03166001600160a01b031681526020019250505060206040518083038186803b15801562000dfe57600080fd5b6000548110620020c7576040805162461bcd60e51b8152602060048201526012602482015260008051602062003f51833981519152604482015290519081900360640190fd5b6000808281548110620020d657fe5b60009182526020822001546040805163ba0892d960e01b815290516001600160a01b039092169350839263ba0892d99260048084019382900301818387803b158015620017fb57600080fd5b60008054821062002169576040805162461bcd60e51b8152602060048201526012602482015260008051602062003f51833981519152604482015290519081900360640190fd5b60008083815481106200217857fe5b6000918252602091829020015460408051639068ed1760e01b815290516001600160a01b0390921693508392639068ed1792600480840193829003018186803b15801562000dfe57600080fd5b60005481106200220b576040805162461bcd60e51b8152602060048201526012602482015260008051602062003f51833981519152604482015290519081900360640190fd5b60008082815481106200221a57fe5b600091825260208220015460408051630d62b85360e41b815290516001600160a01b039092169350839263d62b85309260048084019382900301818387803b1580156200226657600080fd5b505af11580156200227b573d6000803e3d6000fd5b50506040805185815260046020820152815133945060008051602062003f7183398151915293509081900390910190a25050565b606060008054806020026020016040519081016040528092919081815260200182805480156200230957602002820191906000526020600020905b81546001600160a01b03168152600190910190602001808311620022ea575b5050505050905090565b6000805482106200235a576040805162461bcd60e51b8152602060048201526012602482015260008051602062003f51833981519152604482015290519081900360640190fd5b60008083815481106200236957fe5b6000918252602091829020015460408051637f1c4edb60e11b815290516001600160a01b039092169350839263fe389db692600480840193829003018186803b15801562000dfe57600080fd5b6000546060908210620023ff576040805162461bcd60e51b8152602060048201526012602482015260008051602062003f51833981519152604482015290519081900360640190fd5b60008083815481106200240e57fe5b600091825260208220015460408051630f629ad360e41b815290516001600160a01b039092169350839263f629ad3092600480840193829003018186803b1580156200157557600080fd5b600080548210620024a0576040805162461bcd60e51b8152602060048201526012602482015260008051602062003f51833981519152604482015290519081900360640190fd5b60008281548110620024ae57fe5b6000918252602090912001546001600160a01b031692915050565b60005482106200250f576040805162461bcd60e51b8152602060048201526012602482015260008051602062003f51833981519152604482015290519081900360640190fd5b60008083815481106200251e57fe5b60009182526020822001546040805163c7297f7b60e01b8152851515600482015290516001600160a01b039092169350839263c7297f7b9260248084019382900301818387803b1580156200257257600080fd5b505af115801562002587573d6000803e3d6000fd5b50506040805186815260056020820152815133945060008051602062003f7183398151915293509081900390910190a2505050565b61198680620025cb8339019056fe60806040526013805460ff191690553480156200001b57600080fd5b50604051620019863803806200198683398181016040526101608110156200004257600080fd5b81019080805160405193929190846401000000008211156200006357600080fd5b9083019060208201858111156200007957600080fd5b82516401000000008111828201881017156200009457600080fd5b82525081516020918201929091019080838360005b83811015620000c3578181015183820152602001620000a9565b50505050905090810190601f168015620000f15780820380516001836020036101000a031916815260200191505b50604052602001805160405193929190846401000000008211156200011557600080fd5b9083019060208201858111156200012b57600080fd5b82516401000000008111828201881017156200014657600080fd5b82525081516020918201929091019080838360005b83811015620001755781810151838201526020016200015b565b50505050905090810190601f168015620001a35780820380516001836020036101000a031916815260200191505b5060408181526020830151908301516060840151608085015160a086015160c09096018051949893979296919591949193929184640100000000821115620001ea57600080fd5b9083019060208201858111156200020057600080fd5b82516401000000008111828201881017156200021b57600080fd5b82525081516020918201929091019080838360005b838110156200024a57818101518382015260200162000230565b50505050905090810190601f168015620002785780820380516001836020036101000a031916815260200191505b50604090815260208201519082015160609092015190935090915088881015620002ee576040517f08c379a0000000000000000000000000000000000000000000000000000000008152600401808060200182810382526026815260200180620019606026913960400191505060405180910390fd5b60008054731484a6020a0f08400f6f56715016d2c80e26cdc16001600160a01b031991821617909155600180549091166001600160a01b038516179055600a8790556006805460ff19169055600c869055600d85905583516200035990600b906020870190620003e4565b50600280546001600160a01b038085166001600160a01b03199283161790925560038054928416929091169190911790558a516200039f9060059060208e0190620003e4565b50600480546001600160a01b031916301790558951620003c79060079060208d0190620003e4565b505050600995909555505050600892909255506200048992505050565b828054600181600116156101000203166002900490600052602060002090601f016020900481019282601f106200042757805160ff191683800117855562000457565b8280016001018555821562000457579182015b82811115620004575782518255916020019190600101906200043a565b506200046592915062000469565b5090565b6200048691905b8082111562000465576000815560010162000470565b90565b6114c780620004996000396000f3fe6080604052600436106101b55760003560e01c806385209ee0116100ec578063ccd3c7751161008a578063d62b853011610064578063d62b853014610444578063f629ad301461044c578063fb4e386a14610461578063fe389db614610476576101b5565b8063ccd3c77514610405578063d0e30db01461041a578063d21220a71461042f576101b5565b8063a0cb23cd116100c6578063a0cb23cd146103a7578063ba0892d9146103bc578063bd383473146103c4578063c7297f7b146103d9576101b5565b806385209ee0146103445780639068ed171461037d578063a035b1fe14610392576101b5565b80632323f8f5116101595780636751618011610133578063675161801461030a5780636a1bec88146103125780637150d8ae1461031a57806375becd1a1461032f576101b5565b80632323f8f5146102d85780632c93182a146102e05780634ed523e9146102f5576101b5565b806315ea4bb41161019557806315ea4bb41461029c57806316d43a97146102b157806318be633f146102c6578063202dfc70146102d0576101b5565b806263fcf0146101ba578062919055146101e157806308551a531461026b575b600080fd5b3480156101c657600080fd5b506101cf61048b565b60408051918252519081900360200190f35b3480156101ed57600080fd5b506101f6610491565b6040805160208082528351818301528351919283929083019185019080838360005b83811015610230578181015183820152602001610218565b50505050905090810190601f16801561025d5780820380516001836020036101000a031916815260200191505b509250505060405180910390f35b34801561027757600080fd5b5061028061051f565b604080516001600160a01b039092168252519081900360200190f35b3480156102a857600080fd5b506101cf61052e565b3480156102bd57600080fd5b506101cf610534565b6102ce61053a565b005b6102ce610622565b6102ce610691565b3480156102ec57600080fd5b506101cf6109d7565b34801561030157600080fd5b506102ce6109dd565b6102ce610c14565b6102ce610d3b565b34801561032657600080fd5b50610280610d82565b34801561033b57600080fd5b506101f6610d91565b34801561035057600080fd5b50610359610dec565b6040518082600781111561036957fe5b60ff16815260200191505060405180910390f35b34801561038957600080fd5b50610280610df5565b34801561039e57600080fd5b506101cf610e04565b3480156103b357600080fd5b506101cf610e0a565b6102ce610e10565b3480156103d057600080fd5b506101cf610e67565b3480156103e557600080fd5b506102ce600480360360208110156103fc57600080fd5b50351515610e6d565b34801561041157600080fd5b506101cf611078565b34801561042657600080fd5b506101cf61107e565b34801561043b57600080fd5b50610280611084565b6102ce611093565b34801561045857600080fd5b506101f66112cc565b34801561046d57600080fd5b50610280611327565b34801561048257600080fd5b506101cf611336565b600f5481565b6007805460408051602060026001851615610100026000190190941693909304601f810184900484028201840190925281815292918301828280156105175780601f106104ec57610100808354040283529160200191610517565b820191906000526020600020905b8154815290600101906020018083116104fa57829003601f168201915b505050505081565b6002546001600160a01b031681565b600c5481565b60125481565b6002546001600160a01b03163214610599576040805162461bcd60e51b815260206004820152601d60248201527f4f6e6c792073656c6c65722063616e207369676e20636f6e7472616374000000604482015290519081900360640190fd5b600160065460ff1660078111156105ac57fe5b146105f5576040805162461bcd60e51b815260206004820152601460248201527357726f6e6720636f6e747261637420737461746560601b604482015290519081900360640190fd5b600680546002919060ff19166001835b0217905550600380546001600160a01b0319163217905542601255565b600060065460ff16600781111561063557fe5b1461067e576040805162461bcd60e51b815260206004820152601460248201527357726f6e6720636f6e747261637420737461746560601b604482015290519081900360640190fd5b600680546001919060ff19168280610605565b6003546001600160a01b0316321480156106ad57504260105410155b6106e85760405162461bcd60e51b81526004018080602001828103825260238152602001806114706023913960400191505060405180910390fd5b600560065460ff1660078111156106fb57fe5b14610744576040805162461bcd60e51b815260206004820152601460248201527357726f6e6720636f6e747261637420737461746560601b604482015290519081900360640190fd5b600954606490605a02600054604080516370a0823160e01b8152326004820152905193909204926001600160a01b03909116916370a08231916024808301926020929190829003018186803b15801561079c57600080fd5b505afa1580156107b0573d6000803e3d6000fd5b505050506040513d60208110156107c657600080fd5b5051101561081b576040805162461bcd60e51b815260206004820152601860248201527f506c6561736520746f70207570207468652057616c6c65740000000000000000604482015290519081900360640190fd5b60008054600954604080516323b872dd60e01b81523260048201523060248201526064605a909302839004604482015290516001600160a01b03909316936323b872dd93828401936020939192918390030190829087803b15801561087f57600080fd5b505af1158015610893573d6000803e3d6000fd5b505050506040513d60208110156108a957600080fd5b50506006805460ff191681179055600080546002546008546009546040805163a9059cbb60e01b81526001600160a01b03948516600482015292909103602483015251919092169263a9059cbb92604480820193602093909283900390910190829087803b15801561091a57600080fd5b505af115801561092e573d6000803e3d6000fd5b505050506040513d602081101561094457600080fd5b5050600080546001546008546040805163a9059cbb60e01b81526001600160a01b039384166004820152602481019290925251919092169263a9059cbb92604480820193602093909283900390910190829087803b1580156109a557600080fd5b505af11580156109b9573d6000803e3d6000fd5b505050506040513d60208110156109cf57600080fd5b505042601255565b60115481565b6003546001600160a01b03163214610a3c576040805162461bcd60e51b815260206004820152601c60248201527f4f6e6c792062757965722063616e207369676e20636f6e747261637400000000604482015290519081900360640190fd5b600260065460ff166007811115610a4f57fe5b14610a98576040805162461bcd60e51b815260206004820152601460248201527357726f6e6720636f6e747261637420737461746560601b604482015290519081900360640190fd5b600054604080516370a0823160e01b815232600482015290516001600160a01b03909216916370a0823191602480820192602092909190829003018186803b158015610ae357600080fd5b505afa158015610af7573d6000803e3d6000fd5b505050506040513d6020811015610b0d57600080fd5b5051600954606490041115610b535760405162461bcd60e51b81526004018080602001828103825260358152602001806114136035913960400191505060405180910390fd5b60008054600954604080516323b872dd60e01b8152326004820152306024820152606492839004604482015290516001600160a01b03909316936323b872dd93828401936020939192918390030190829087803b158015610bb357600080fd5b505af1158015610bc7573d6000803e3d6000fd5b505050506040513d6020811015610bdd57600080fd5b50506006805460ff1916600317905560095460649004600e556000600f556249d40042908101601055621275008101601155601255565b6002546001600160a01b031632148015610c2f575042601154105b610c6a5760405162461bcd60e51b81526004018080602001828103825260338152602001806113e06033913960400191505060405180910390fd5b60035b60065460ff166007811115610c7e57fe5b14610cc7576040805162461bcd60e51b815260206004820152601460248201527357726f6e6720636f6e747261637420737461746560601b604482015290519081900360640190fd5b6006805460ff1916905560008054600254600854600e54600f546040805163a9059cbb60e01b81526001600160a01b0395861660048201529190920192909203602483015251919092169263a9059cbb92604480820193602093909283900390910190829087803b15801561091a57600080fd5b4260105410610d7b5760405162461bcd60e51b815260040180806020018281038252603681526020018061133d6036913960400191505060405180910390fd5b6005610c6d565b6003546001600160a01b031681565b600b805460408051602060026001851615610100026000190190941693909304601f810184900484028201840190925281815292918301828280156105175780601f106104ec57610100808354040283529160200191610517565b60065460ff1681565b6001546001600160a01b031681565b60095481565b60105481565b6003546001600160a01b031632148015610e2c57504260115410155b610c6a5760405162461bcd60e51b81526004018080602001828103825260338152602001806113736033913960400191505060405180910390fd5b60085481565b6001546001600160a01b03163214610eb65760405162461bcd60e51b81526004018080602001828103825260288152602001806114486028913960400191505060405180910390fd5b600460065460ff166007811115610ec957fe5b14610f12576040805162461bcd60e51b815260206004820152601460248201527357726f6e6720636f6e747261637420737461746560601b604482015290519081900360640190fd5b8015610f39576013805460ff19908116600117909155600680549091166005179055611071565b6013805460ff1990811690915560068054909116905560008054600354600854600e54600f546040805163a9059cbb60e01b81526001600160a01b0395861660048201529190920192909203602483015251919092169263a9059cbb92604480820193602093909283900390910190829087803b158015610fb957600080fd5b505af1158015610fcd573d6000803e3d6000fd5b505050506040513d6020811015610fe357600080fd5b5050600080546001546008546040805163a9059cbb60e01b81526001600160a01b039384166004820152602481019290925251919092169263a9059cbb92604480820193602093909283900390910190829087803b15801561104457600080fd5b505af1158015611058573d6000803e3d6000fd5b505050506040513d602081101561106e57600080fd5b50505b5042601255565b600a5481565b600e5481565b6000546001600160a01b031681565b6003546001600160a01b0316321480156110af57504260115410155b611100576040805162461bcd60e51b815260206004820152601f60248201527f4f6e6c792062757965722063616e20706179204f545020636f6e747261637400604482015290519081900360640190fd5b600360065460ff16600781111561111357fe5b1461115c576040805162461bcd60e51b815260206004820152601460248201527357726f6e6720636f6e747261637420737461746560601b604482015290519081900360640190fd5b6009805460649102600054604080516370a0823160e01b8152326004820152905193909204926001600160a01b03909116916370a08231916024808301926020929190829003018186803b1580156111b357600080fd5b505afa1580156111c7573d6000803e3d6000fd5b505050506040513d60208110156111dd57600080fd5b5051101561121c5760405162461bcd60e51b815260040180806020018281038252603a8152602001806113a6603a913960400191505060405180910390fd5b6000805460098054604080516323b872dd60e01b81523260048201523060248201526064929093028290046044840152516001600160a01b03909316936323b872dd938383019360209391929083900390910190829087803b15801561128157600080fd5b505af1158015611295573d6000803e3d6000fd5b505050506040513d60208110156112ab57600080fd5b50506006805460ff19166004179055600980546064910204600f5542601255565b6005805460408051602060026001851615610100026000190190941693909304601f810184900484028201840190925281815292918301828280156105175780601f106104ec57610100808354040283529160200191610517565b6004546001600160a01b031681565b600d548156fe4f6e6c7920706f737420446561646c696e65207769746864726177206166746572207472616e73616374696f6e20646561646c696e654f6e6c792062757965722063616e207769746864726177206265666f7265207472616e73616374696f6e20646561646c696e654275796572206e6565647320746f206465706f736974206265747765656e2031302520616e64203130302520746f2065786563757465204f54504f6e6c792073656c6c65722063616e207769746864726177206166746572207472616e73616374696f6e20646561646c696e6557616c6c65742042616c616e6365206973206c6573736572207468616e207265717569726564206465706f73697420616d6f756e744f6e6c79204167656e742063616e2072657669657720636c6f73696e6720636f6e646974696f6e734f6e6c792062757965722063616e2066696e616c697a65207472616e73616374696f6ea265627a7a7231582072bbcd4ad6a0df19e5b0c47c0cc16afdb762465bad464c056ef48cfef499771264736f6c634300050b00325072696365206e6565647320746f206265206d6f7265207468616e204167656e742066656521696e646578206f7574206f662072616e67650000000000000000000000000000ef61bc92c100a9fcc99cfb6cba93c917763e0eaf8be97d45a2a4ebdbd58b8909a265627a7a7231582028cc97b83206acfff07e56956b2b89062baec4f0bee4144b98be27ab24ba2d9f64736f6c634300050b0032",
  "linkReferences": {},
  "deployedLinkReferences": {}
}